:03000000020100FA
:100100007880765308766108767208767408766887
:1001100008766108766B08762008764E08766908BE
:10012000766A0876680876610876770876610876D8
:070130006E087600020200D8
:1002000075A000759000519C519C512B519C519CA4
:10021000519C74855168519C9003005188519C7485
:10022000C05168519C7880519280FE75A038C28080
:10023000C281D282519CC282519C75A00CC280C2E4
:1002400081D282519CC282519C75A001C280C28120
:10025000D282519CC282519C75A006C280C281D2BA
:1002600082519CC282519C22F5A0C280C281D2825E
:10027000519CC282519C22F5A0D280C281D282516F
:100280009CC282519C519C22E49360055177A380CB
:10029000F722E4E6600551770880F722C0D075D0D8
:0C02A00008780179FFD9FED8FAD0D022EE
:0703000045452033333700AF
:00000001FF
