:03000000020B3CB4
:0C0B3C00787FE4F6D8FD75813C020B8345
:0B0D5E0044540043540054696D6500CC
:100C4000C100C101C10302320000023800000234B9
:100C500000000226000002300000013A00013600C8
:0A0C6000023B003202240023C1020F
:100A1500E4F5B0F5A05390EF5380F0120D1F120DC1
:100A2500397F81120C8C120CE67BFF7A0D795E7D85
:100A350002120C147F87120C8C120CE67BFF7A0DC8
:100A450079617D02120C147F8C120C8C120CE67BE2
:100A5500FF7A0D79647D04120C14120D69D2B6303B
:100A650090391208008E248F25D202E4F530F53135
:100A7500FBAF31120BC87FCC120C8C120CE6E4F5DF
:100A85003A120D508F2F120CAA053AE53AC394037A
:100A950040EF7FF47E01120C6B80C41209237FE8BE
:070AA5007E03120C6B80B808
:10080000C29475C5013000FDC20075C5803000FD81
:10081000E5215403F52BC200E4F5C53000FD852128
:1008200037C200D294E52BFE7C00E42537F533EC8B
:100830003EF5320536E5332527F527E5323526F531
:1008400026E536640A600280B7E4F536AE26AF27A7
:10085000FC7DC8120AE78E388F39E4F526F527C3E8
:10086000E5399405E53894005007E4F538F539800A
:1008700074C374059539E49538500DC3E539940F68
:10088000E538940050028015C3740F9539E495380B
:100890005013C3E5399419E53894005008753800B1
:1008A0007539148040C374199539E495385013C3D1
:1008B000E5399423E5389400500875380075391EE1
:1008C0008023C374239539E495385013C3E53994D4
:1008D0002DE5389400500875380075392880067564
:1008E000380075393274232539F539E43538F5384F
:1008F0007B007A00792C7D03AF39FE120BD07FC0CC
:10090000120C8C120CE6E4F53A742C120D528F2F57
:10091000120CAA053AE53AC3940340EDD290AE38E2
:03092000AF3922CA
:10092300C29475C5013000FDC20075C5903000FD4D
:10093300E5215403F52BC200E4F5C53000FD852104
:1009430037C200D294E52BFE7C00E42537F533EC67
:100953003EF5320536E5332527F527E5323526F50D
:1009630026E536640A600280B7E4F536AE26AF2783
:10097300FC7D14120AE78E388F39E4F526F527FB40
:100983007A00792C7D03120BD07FC6120C8C120CCB
:10099300E6E4F53A742C120D528F2F120CAA053A85
:1009A300E53AC3940340EDD3E5259539E52495381D
:1009B300402A0531E531700205307B00FF120BC878
:1009C3007FCC120C8C120CE6E4F53A120D508F2FEB
:1009D300120CAA053AE53AC3940340EF8538228501
:1009E3003923E525253CFFE524353BFEC3EF95235D
:1009F300EE95225004C2B78016C3E525953CFFE56A
:100A030024953BFED3EF9523EE95224002D2B7D235
:020A130090222F
:080BC8007A0079287D03AE30AC
:100BD0008E088F098B0A8A0B890CED14F53AE53AD9
:100BE000C39400402EAE08AF097C007D0A120AE7CC
:100BF000AB0AAA0BA90C853A82758300ED120AC5CF
:100C0000AE08AF097C007D0A120AE78E088F09152D
:040C10003A80CB2239
:050D6900C2B7D2902288
:03004B00020D03A0
:100D0300C0E0C0D075D000C007AFC4EF2480700529
:0C0D130085C521D200D007D0D0D0E0323E
:090D50007428253AF8E6FF7E0044
:050D590074302FFF22A1
:100D1F00D29443C32043C30143C31053C3F743C308
:0A0D2F000443B104D2AF43C34022D5
:100D3900120CE67F38120C8C7F0C120C8C7F01127E
:070D49000C8C7F80020C8C72
:100C8C008F08120CC88508A0C280C281D2827F0551
:0E0C9C007E00120CEAC2827F057E00020CEA86
:100CAA008F0C120CC8850CA0D280C281D2827F051B
:0E0CBA007E00120CEAC2827F057E00020CEA68
:100C14008B088A09890A8D0BE50BD39400401CAB21
:100C240008AA09A90A120AACFF120CAA7401250A1F
:0C0C3400F50AE43509F509150B80DD22F6
:100CC80075A0FFC280D281C2827F057E00120CEA25
:0E0CD800D28230A706C282D28280F7C2822268
:040CE6007F647E00A9
:100CEA00D3EF9400EE64809480400DE4FD0DBD05C1
:080CFA00FCEF1F70EB1E80E807
:010D020022CE
:100C6B00D3EF9400EE648094804015E4FCFD0DBD41
:100C7B0000010CBC01F8BD7EF5EF1F70E31E80E098
:010C8B002246
:100B4800020A15E493A3F8E493A34003F68001F2A4
:100B580008DFF48029E493A3F85407240CC8C333AE
:100B6800C4540F4420C8834004F456800146F6DF7D
:100B7800E4800B0102040810204080900C40E47EC1
:100B8800019360BCA3FF543F30E509541FFEE49372
:100B9800A360010ECF54C025E060A840B8E493A339
:100BA800FAE493A3F8E493A3C8C582C8CAC583CA64
:100BB800F0A3C8C582C8CAC583CADFE9DEE780BE1C
:010C6A000089
:100AAC00BB010689828A83E0225002E722BBFE0248
:090ABC00E32289828A83E493227B
:100AC500F8BB010DE58229F582E5833AF583E8F067
:100AD500225006E92582C8F622BBFE05E92582C813
:020AE500F222FB
:100AE700BC000BBE0029EF8DF084FFADF022E4CCF3
:100AF700F875F008EF2FFFEE33FEEC33FCEE9DECBC
:100B0700984005FCEE9DFE0FD5F0E9E4CEFD22ED01
:100B1700F8F5F0EE8420D21CFEADF075F008EF2F4B
:100B2700FFED33FD4007985006D5F0F222C398FD3C
:050B37000FD5F0EA22D9
:00000001FF
