:03000000020B648C
:0C0B6400787FE4F6D8FD75813D020BABF4
:0B0DEB0044540043540054696D65003F
:100C5E00C101C102C1030233000002390000023596
:100C6E0000000228000002220000013B00013700B4
:100C7E00012E28023C00020224000002260028C198
:010C8E0080E5
:10080000E4F5B0F5A05390EF5380F0120D93120D64
:10081000C5120DDC7F81120D04120D407BFF7A0D95
:1008200079EB7D02120C907F87120D04120D407B34
:10083000FF7A0D79EE7D02120C907F8C120D04125E
:100840000D407BFF7A0D79F17D04120C907FC01270
:100850000D04120D40AE26AF277C007D64120C09FA
:100860008F30E53075F00A8485F030AE26AF277CF6
:10087000007D0A120C098F31E53175F00A8485F08C
:1008800031852732E53275F00A8485F032E4F53B94
:10089000120CBC053BE53BC3940340F4D290C2B7B5
:1008A000209003020A11C2B7C29475C5013001FD40
:1008B000C20175C5803001FDE5215403F52FC20149
:1008C000E4F5C53001FD852138C201D294E52FFE43
:1008D0007C00E42538F534EC3EF5330537E5342566
:1008E00029F529E5333528F528E537640A600280C3
:1008F000B7E4F537AE28AF29FC7DC8120C098E3954
:100900008F3AE4F528F529C3E53A9405E5399400D2
:100910005007E4F539F53A807AC37405953AE495C1
:10092000395013C3E53A940FE539940050087539EE
:1009300000753A0A805DC3740F953AE495395013F7
:10094000C3E53A9419E53994005008753900753AB1
:10095000148040C37419953AE495395013C3E53AAD
:100960009423E53994005008753900753A1E8023A8
:10097000C37423953AE495395013C3E53A942DE5B1
:100980003994005008753900753A28800675390089
:10099000753A327423253AF53AE43539F539F526B6
:1009A000853A27FEAF3A7C007D64120C098F30E552
:1009B0003075F00A8485F030AE39AF3A7C007D0A9C
:1009C000120C098F31E53175F00A8485F031853AD2
:1009D00032E53275F00A8485F0327FC0120D0412C0
:1009E0000D40E4F53B120CBC053BE53BC3940340D2
:1009F000F4E4F53B742A253BF8E4F6053BE53BB40B
:100A000004F2120D79E4F522F523D200C28C020B18
:100A100058C29475C5013001FDC20175C590300101
:100A2000FDE5215403F52FC201E4F5C53001FD8534
:100A30002138C201D294E52FFE7C00E42538F5343C
:100A4000EC3EF5330537E5342529F529E53335281E
:100A5000F528E537640A600280B7E4F537AE28AFC1
:100A600029FC7D14120C098E398F3A853924853A78
:100A700025E4F528F529FC7D64120C098F30E5305A
:100A800075F00A8485F030AE39AF3A7C007D0A12E9
:100A90000C098F31E53175F00A8485F031853A32E1
:100AA000E53275F00A8485F0327FC6120D04120D0E
:100AB00040E4F53B120CBC053BE53BC3940340F41A
:100AC000E527253DFFE526353CFED3EF9525EE9540
:100AD000245004C2B78016C3E527953DFFE526954F
:100AE0003CFEC3EF9525EE95244002D2B730006856
:100AF000D28CAE22AF237C037DE8120C098F2AE54D
:100B00002A75F00A8485F02AAE22AF237C007D642A
:100B1000120C098F2BE52B75F00A8485F02BAE2281
:100B2000AF237C007D0A120C098F2CE52C75F00A8E
:100B30008485F02C85232DE52D75F00A8485F02D14
:100B4000120D79E525B5270EE524B52609C2005317
:100B5000A8FDC28C8002D200D2907FE87E03120CE6
:040B6000E30208A004
:100D79007FCC120D04120D40E4F53B742A120CBE0F
:0A0D8900053BE53BC3940440F22251
:0F0DDC00758C3C758AAF75890143A882C28C2241
:03000B00020DAD36
:100DAD00C0E0E52E700D0523E52370020522752E9A
:080DBD00288002152ED0E0325F
:03004B00020D5D46
:100D5D00C0E0C0D075D000C007AFC4EF24807005CF
:0C0D6D0085C521D201D007D0D0D0E032E3
:100D9300D29443C32043C30143C31053C3F743C394
:0A0DA3000443B104D2AF43C3402261
:100DC500120D407F38120D047F0C120D047F0112A5
:070DD5000D047F80020D04F4
:100D04008F08120D228508A0C280C281D2827F057D
:0E0D14007E00120D44C2827F057E00020D4457
:090CBC007430253BF8E62430FFFA
:100CC5008F0C120D22850CA0D280C281D2827F05A5
:0E0CD5007E00120D44C2827F057E00020D4497
:100C90008B088A09890A8D0BE50BD39400401CABA5
:100CA00008AA09A90A120BF0FF120CC57401250A43
:0C0CB000F50AE43509F509150B80DD227A
:100D220075A0FFC280D281C2827F057E00120D446F
:0E0D3200D28230A706C282D28280F7C282220D
:040D40007F647E004E
:100D4400D3EF9400EE64809480400DE4FD0DBD0566
:080D5400FCEF1F70EB1E80E8AC
:010D5C002274
:100CE300D3EF9400EE648094804015E4FCFD0DBDC9
:100CF30000010CBC01F8BD7EF5EF1F70E31E80E020
:010D030022CD
:100B7000020800E493A3F8E493A34003F68001F293
:100B800008DFF48029E493A3F85407240CC8C33386
:100B9000C4540F4420C8834004F456800146F6DF55
:100BA000E4800B0102040810204080900C5EE47E7B
:100BB000019360BCA3FF543F30E509541FFEE4934A
:100BC000A360010ECF54C025E060A840B8E493A311
:100BD000FAE493A3F8E493A3C8C582C8CAC583CA3C
:100BE000F0A3C8C582C8CAC583CADFE9DEE780BEF4
:010C8F000064
:100BF000BB010689828A83E0225002E722BBFE0203
:090C0000E32289828A83E4932235
:100C0900BC000BBE0029EF8DF084FFADF022E4CCCF
:100C1900F875F008EF2FFFEE33FEEC33FCEE9DEC98
:100C2900984005FCEE9DFE0FD5F0E9E4CEFD22EDDE
:100C3900F8F5F0EE8420D21CFEADF075F008EF2F28
:100C4900FFED33FD4007985006D5F0F222C398FD19
:050C59000FD5F0EA22B6
:00000001FF
