:030000000209CB27
:0C09CB00787FE4F6D8FD758120020A1246
:0B0C0E0044540043540054696D65001D
:100BA400C100C101C102020F0000021500000211C0
:0C0BB400000002090000011700011300FE
:10080000E4F5B0F5A05390EF5380F0120BDD120B1E
:10081000F77F81120B4B120B877BFF7A0C790E7DD1
:1008200002120AD77F87120B4B120B877BFF7A0CC1
:1008300079117D02120AD77F8C120B4B120B877B2A
:10084000FF7A0C79147D04120AD7D290209003020B
:10085000090AC2B6C29475C5013000FDC20075C553
:10086000803000FDE5085403F50BC200E4F5C53007
:1008700000FD850814C200D294E50BFE7C00E4253F
:1008800014F510EC3EF50F0513E510250AF50AE501
:100890000F3509F509E513640A600280B7E4F51322
:1008A000E5091313543FF516751500AE15FF7C00CE
:1008B0007D32120A708E158F16E4F509F50A7D64F3
:1008C000120A828F0CE50C75F00A8485F00CAE15C7
:1008D000AF167C007D0A120A828F0DE50D75F00AB5
:1008E0008485F00D85160EE50E75F00A8485F00EF0
:1008F0007FC0120B4B120B87E4F517120B03051781
:10090000E517C3940340F40209BFD2B6C29475C57B
:10091000013000FDC20075C5903000FDE5085403AC
:10092000F50BC200E4F5C53000FD850814C200D205
:1009300094E50BFE7C00E42514F510EC3EF50F0564
:1009400013E510250AF50AE50F3509F509E51364E5
:100950000A600280B7E4F513E5091313543FF51656
:10096000751500AE15FF7C007D32120A708E158F52
:1009700016E4F509F50A7D64120A828F0CE50C7500
:10098000F00A8485F00CAE15AF167C007D0A120AC1
:10099000828F0DE50D75F00A8485F00D85160EE544
:1009A0000E75F00A8485F00E7FC6120B4B120B8772
:1009B000E4F517120B030517E517C3940340F4D2AF
:0B09C000907FE87E03120B2A02084C17
:03004B00020BC1E4
:100BC100C0E0C0D075D000C007AFC4EF248070056D
:0C0BD10085C508D200D007D0D0D0E0329B
:100BDD00D29443C32043C30143C31053C3F743C34C
:0A0BED000443B104D2AF43C3402219
:100BF700120B877F38120B4B7F0C120B4B7F0112A6
:070C07000B4B7F80020B4B39
:100B4B008F18120B698518A0C280C281D2827F05D3
:0E0B5B007E00120B8BC2827F057E00020B8B88
:090B0300740C2517F8E62430FFFC
:100B0C008F1C120B69851CA0D280C281D2827F05FA
:0E0B1C007E00120B8BC2827F057E00020B8BC7
:100AD7008B188A19891A8D1BE51BD39400401CAB10
:100AE70018AA19A91A120A57FF120B0C7401251A12
:0C0AF700F51AE43519F519151B80DD22F5
:100B690075A0FFC280D281C2827F057E00120B8BE5
:0E0B7900D28230A706C282D28280F7C28222C8
:040B87007F647E0009
:100B8B00D3EF9400EE64809480400DE4FD0DBD0521
:080B9B00FCEF1F70EB1E80E867
:010BA300222F
:100B2A00D3EF9400EE648094804015E4FCFD0DBD83
:100B3A0000010CBC01F8BD7EF5EF1F70E31E80E0DA
:010B4A002288
:1009D700020800E493A3F8E493A34003F68001F22E
:1009E70008DFF48029E493A3F85407240CC8C33321
:1009F700C4540F4420C8834004F456800146F6DFF0
:100A0700E4800B0102040810204080900BA4E47ED0
:100A1700019360BCA3FF543F30E509541FFEE493E4
:100A2700A360010ECF54C025E060A840B8E493A3AB
:100A3700FAE493A3F8E493A3C8C582C8CAC583CAD6
:100A4700F0A3C8C582C8CAC583CADFE9DEE780BE8E
:010BC0000034
:100A5700BB010689828A83E0225002E722BBFE029D
:090A6700E32289828A83E49322D0
:100A7000EF8DF0A4A8F0CF8CF0A428CE8DF0A42E9A
:020A8000FE2254
:100A8200BC000BBE0029EF8DF084FFADF022E4CC58
:100A9200F875F008EF2FFFEE33FEEC33FCEE9DEC21
:100AA200984005FCEE9DFE0FD5F0E9E4CEFD22ED67
:100AB200F8F5F0EE8420D21CFEADF075F008EF2FB1
:100AC200FFED33FD4007985006D5F0F222C398FDA2
:050AD2000FD5F0EA223F
:00000001FF
