:03000000020B5997
:0C0B5900787FE4F6D8FD75813C020BA00B
:0B0D860044540043540054696D6500A4
:100C5D00C100C101C103023200000238000002349C
:100C6D0000000226000002300000013A00013600AB
:0A0C7D00023B003202240023C102F2
:100A2A00E4F5B0F5A05390EF5380F0120D3C120D8F
:100A3A0056120D7B7F81120CA9120D037BFF7A0DD2
:100A4A0079867D02120C317F87120CA9120D037B65
:100A5A00FF7A0D79897D02120C317F8C120CA91252
:100A6A000D037BFF7A0D798C7D04120C31120D91E6
:100A7A00D2B63090391208008E248F25D202E4F5BE
:100A8A0030F531FBAE30120BE57FCC120CA9120DFA
:100A9A0003E4F53A120D6D8F2F120CC7053AE53AA9
:100AAA00C3940340EF7FF47E01120C8880C43002A5
:0F0ABA0002D28C12096D7FE87E03120C8880B384
:10080000C29475C5013000FDC20075C5803000FD81
:10081000E5215403F52BC200E4F5C53000FD852128
:1008200037C200D294E52BFE7C00E42537F533EC8B
:100830003EF5320536E5332527F527E5323526F531
:1008400026E536640A600280B7E4F536AE26AF27A7
:10085000FC7DC8120B048E388F39E4F526F527C3CA
:10086000E5399405E53894005007E4F538F539800A
:1008700074C374059539E49538500DC3E539940F68
:10088000E538940050028015C3740F9539E495380B
:100890005013C3E5399419E53894005008753800B1
:1008A0007539148040C374199539E495385013C3D1
:1008B000E5399423E5389400500875380075391EE1
:1008C0008023C374239539E495385013C3E53994D4
:1008D0002DE5389400500875380075392880067564
:1008E000380075393274232539F539E43538F5384F
:1008F000308C46C3E5259539E5249538503BC28CAC
:10090000D202AF8CEFFEAD8A7C00E42DF531EC3ED7
:10091000F5307B00FE120BE5E4F530F5317FCC12AB
:100920000CA9120D03E4F53A120D6D8F2F120CC7AE
:10093000053AE53AC3940340EF7B007A00792C7DB9
:1009400003AF39AE38120BED7FC0120CA9120D03A4
:10095000E4F53A742C120D6F8F2F120CC7053AE58F
:0D0960003AC3940340EDD290AE38AF392277
:10096D00C29475C5013000FDC20075C5903000FD03
:10097D00E5215403F52BC200E4F5C53000FD8521BA
:10098D0037C200D294E52BFE7C00E42537F533EC1D
:10099D003EF5320536E5332527F527E5323526F5C3
:1009AD0026E536640A600280B7E4F536AE26AF2739
:1009BD00FC7D14120B048E388F39E4F526F527FBD8
:1009CD007A00792C7D03120BED7FC6120CA9120D46
:1009DD0003E4F53A742C120D6F8F2F120CC7053AE4
:1009ED00E53AC3940340ED853822853923E5252565
:1009FD003CFFE524353BFEC3EF9523EE95225004D5
:100A0D00C2B78016C3E525953CFFE524953BFED383
:0D0A1D00EF9523EE95224002D2B7D2902231
:080BE5007A0079287D03AF318D
:100BED008E088F098B0A8A0B890CED14F53AE53ABC
:100BFD00C39400402EAE08AF097C007D0A120B0491
:100C0D00AB0AAA0BA90C853A82758300ED120AE294
:100C1D00AE08AF097C007D0A120B048E088F0915F2
:040C2D003A80CB221C
:050D9100C2B7D2902260
:03004B00020D2083
:100D2000C0E0C0D075D000C007AFC4EF248070050C
:0C0D300085C521D200D007D0D0D0E03221
:090D6D007428253AF8E6FF7E0027
:050D760074302FFF2284
:100D3C00D29443C32043C30143C31053C3F743C3EB
:0A0D4C000443B104D2AF43C34022B8
:0B0D7B00E4F58CF58A758901C28C221A
:100D5600120D037F38120CA97F0C120CA97F011209
:070D66000CA97F80020CA91B
:100CA9008F08120CE58508A0C280C281D2827F0517
:0E0CB9007E00120D07C2827F057E00020D072D
:100CC7008F0C120CE5850CA0D280C281D2827F05E1
:0E0CD7007E00120D07C2827F057E00020D070F
:100C31008B088A09890A8D0BE50BD39400401CAB04
:100C410008AA09A90A120AC9FF120CC77401250AC8
:0C0C5100F50AE43509F509150B80DD22D9
:100CE50075A0FFC280D281C2827F057E00120D07EA
:0E0CF500D28230A706C282D28280F7C282224B
:040D03007F647E008B
:100D0700D3EF9400EE64809480400DE4FD0DBD05A3
:080D1700FCEF1F70EB1E80E8E9
:010D1F0022B1
:100C8800D3EF9400EE648094804015E4FCFD0DBD24
:100C980000010CBC01F8BD7EF5EF1F70E31E80E07B
:010CA8002229
:100B6500020A2AE493A3F8E493A34003F68001F272
:100B750008DFF48029E493A3F85407240CC8C33391
:100B8500C4540F4420C8834004F456800146F6DF60
:100B9500E4800B0102040810204080900C5DE47E87
:100BA500019360BCA3FF543F30E509541FFEE49355
:100BB500A360010ECF54C025E060A840B8E493A31C
:100BC500FAE493A3F8E493A3C8C582C8CAC583CA47
:100BD500F0A3C8C582C8CAC583CADFE9DEE780BEFF
:010C8700006C
:100AC900BB010689828A83E0225002E722BBFE022B
:090AD900E32289828A83E493225E
:100AE200F8BB010DE58229F582E5833AF583E8F04A
:100AF200225006E92582C8F622BBFE05E92582C8F6
:020B0200F222DD
:100B0400BC000BBE0029EF8DF084FFADF022E4CCD5
:100B1400F875F008EF2FFFEE33FEEC33FCEE9DEC9E
:100B2400984005FCEE9DFE0FD5F0E9E4CEFD22EDE4
:100B3400F8F5F0EE8420D21CFEADF075F008EF2F2E
:100B4400FFED33FD4007985006D5F0F222C398FD1F
:050B54000FD5F0EA22BC
:00000001FF
