:030000000208F9FA
:0C08F900787FE4F6D8FD75813C020940D0
:100A07005072657373205920746F20737461727408
:100A17002073616D706C696E67207468652064610E
:100A270074610A00546F2073746F702073616D7066
:100A37006C696E67207072657373204E0A00546587
:0C0A47006D70657261747572653A200074
:100A5300C100C101C102022F0000023700000231B0
:100A630000000222000002330000013900013500BA
:0F0A73000326FF0A070329FF0A2B032CFF0A455E
:10080000120AEE120B1FAB26AA27A9287D237C0013
:10081000120A83120B088F25E525B459E9C2947595
:10082000C5013000FDC20075C5803000FDE52154D2
:1008300003F524C200E4F5C53000FD852136C20071
:10084000D294E524FE7C00E42536F530EC3EF52F0D
:100850000535E5302523F523E52F3522F522E5354D
:10086000640A600280B7E4F535AE22AF23FC7D1444
:100870001209B28E378F38E4F522F523FC7D64121D
:1008800009B28F3AE53A75F00A8485F03AAE37AF8F
:10089000387C007D0A1209B28F3BE53B75F00A8473
:1008A00085F03B85383CE53C75F00A8485F03CAB2F
:1008B0002CAA2DA92E7D0E7C00120A83E4F5397432
:1008C0003A2539F8E6FF7E00120B3E120B2F053950
:1008D000E539C3940340E87F0A120B2FAB29AA2AFB
:1008E000A92B7D197C00120A83120B088F25E525A0
:0908F000644E600302081D80FE45
:100B1F007589207598D0758DCCD28EC299C29822C6
:100B0800E4F508F5097FD07E07120AB1309805AFE1
:060B180099C298227F4102
:010B1E0022B4
:0F0B2F00C299EFA2D0929BF5993099FDC29922FD
:100A83008B088A09890AE4F539C3E5399DEC64804A
:100A9300F87480985017AB08AA09A90A853982759A
:0E0AA3008300120985FF120B2F053980DC221B
:03004B00020AD2D4
:100AD200C0E0C0D075D000C007AFC4EF248070055D
:0C0AE20085C521D200D007D0D0D0E03272
:050B3E0074302FFF22BE
:100AEE00D29443C32043C30143C31053C3F743C33C
:0A0AFE000443B104D2AF43C3402209
:100AB100D3EF9400EE648094804015E4FCFD0DBDFD
:100AC10000010CBC01F8BD7EF5EF1F70E31E80E054
:010AD1002202
:10090500020800E493A3F8E493A34003F68001F200
:1009150008DFF48029E493A3F85407240CC8C333F3
:10092500C4540F4420C8834004F456800146F6DFC2
:10093500E4800B0102040810204080900A53E47EF5
:10094500019360BCA3FF543F30E509541FFEE493B7
:10095500A360010ECF54C025E060A840B8E493A37E
:10096500FAE493A3F8E493A3C8C582C8CAC583CAA9
:10097500F0A3C8C582C8CAC583CADFE9DEE780BE61
:010A82000073
:10098500BB010CE58229F582E5833AF583E0225027
:1009950006E92582F8E622BBFE06E92582F8E22271
:0D09A500E58229F582E5833AF583E493228B
:1009B200BC000BBE0029EF8DF084FFADF022E4CC29
:1009C200F875F008EF2FFFEE33FEEC33FCEE9DECF2
:1009D200984005FCEE9DFE0FD5F0E9E4CEFD22ED38
:1009E200F8F5F0EE8420D21CFEADF075F008EF2F82
:1009F200FFED33FD4007985006D5F0F222C398FD73
:050A02000FD5F0EA220F
:00000001FF
