:030000000208F4FF
:0C08F400787FE4F6D8FD75813C02093BDA
:100A02005072657373205920746F2073746172740D
:100A12002073616D706C696E672074686520646113
:100A220074610A00546F2073746F702073616D706B
:100A32006C696E67207072657373204E0A0054658C
:0D0A42006D70657261747572653A200A006E
:100A4F00C100C101C102022F0000023700000231B4
:100A5F0000000222000002330000013900013500BE
:0F0A6F000326FF0A020329FF0A26032CFF0A4071
:10080000120AEA120B1BAB26AA27A9287D237C001B
:10081000120A7F120B048F25E525B459E9C294759D
:10082000C5013000FDC20075C5803000FDE52154D2
:1008300003F524C200E4F5C53000FD852136C20071
:10084000D294E524FE7C00E42536F530EC3EF52F0D
:100850000535E5302523F523E52F3522F522E5354D
:10086000640A600280B7E4F535AE22AF23FC7D1444
:100870001209AD8E378F38E4F522F523FC7D641222
:1008800009AD8F3AE53A75F00A8485F03AAE37AF94
:10089000387C007D0A1209AD8F3BE53B75F00A8478
:1008A00085F03B85383CE53C75F00A8485F03CAB2F
:1008B0002CAA2DA92E7D0E7C00120A7FE4F5397436
:1008C0003A2539F8E6FF7E00120B3A120B2B053958
:1008D000E539C3940340E8AB29AA2AA92B7D197CEA
:1008E00000120A7F120B048F25E525644E60030277
:0408F000081D80FE61
:100B1B007589207598D0758DCCD28EC299C29822CA
:100B0400E4F508F5097FD07E07120AAD309805AFE9
:060B140099C298227F4106
:010B1A0022B8
:0F0B2B00C299EFA2D0929BF5993099FDC2992201
:100A7F008B088A09890AE4F539C3E5399DEC64804E
:100A8F00F87480985017AB08AA09A90A853982759E
:0E0A9F008300120980FF120B2B053980DC2228
:03004B00020ACED8
:100ACE00C0E0C0D075D000C007AFC4EF2480700561
:0C0ADE0085C521D200D007D0D0D0E03276
:050B3A0074302FFF22C2
:100AEA00D29443C32043C30143C31053C3F743C340
:0A0AFA000443B104D2AF43C340220D
:100AAD00D3EF9400EE648094804015E4FCFD0DBD01
:100ABD0000010CBC01F8BD7EF5EF1F70E31E80E058
:010ACD002206
:10090000020800E493A3F8E493A34003F68001F205
:1009100008DFF48029E493A3F85407240CC8C333F8
:10092000C4540F4420C8834004F456800146F6DFC7
:10093000E4800B0102040810204080900A4FE47EFE
:10094000019360BCA3FF543F30E509541FFEE493BC
:10095000A360010ECF54C025E060A840B8E493A383
:10096000FAE493A3F8E493A3C8C582C8CAC583CAAE
:10097000F0A3C8C582C8CAC583CADFE9DEE780BE66
:010A7E000077
:10098000BB010CE58229F582E5833AF583E022502C
:1009900006E92582F8E622BBFE06E92582F8E22276
:0D09A000E58229F582E5833AF583E4932290
:1009AD00BC000BBE0029EF8DF084FFADF022E4CC2E
:1009BD00F875F008EF2FFFEE33FEEC33FCEE9DECF7
:1009CD00984005FCEE9DFE0FD5F0E9E4CEFD22ED3D
:1009DD00F8F5F0EE8420D21CFEADF075F008EF2F87
:1009ED00FFED33FD4007985006D5F0F222C398FD78
:0509FD000FD5F0EA2215
:00000001FF
