:0300000002013BBF
:03000B00020347A6
:03001B0002036E6F
:1001000075703175713275723A75733575743975EC
:10011000753A757633757730757820757920757AEC
:1001200020757B20227F1E75891175880075A88A2D
:10013000D2BBC28DC28FD28CD28E227581C77590F0
:100140000F316631D631D631D63100312574803148
:10015000A331D690040031C331D674C431A331D653
:10016000787031CD80E775A038C280C281D28231EB
:10017000D6C28231D675A00CC280C281D28231D65D
:10018000C28231D675A001C280C281D28231D6C26C
:100190008231D675A006C280C281D28231D6C28297
:1001A00031D622F5A0C280C281D28231D6C282313C
:1001B000D622F5A0D280C281D28231D6C28231D677
:1001C00031D622E493600531B2A380F722E66005C0
:1001D00031B20880F822C0D075D008780179FFD9F3
:0601E000FED8FAD0D02287
:10030000C0D0C0E0E4B6390C763018B63506763089
:100310007410800106D0E0D0D02218B6310B08B698
:1003200032127631187630801D08B63907763018CB
:1003300076318001062278777100600A7874710046
:1003400060047871711A22E54F30E01B654EF5F0BC
:1003500030F1047877710030F2047874710030F372
:10036000E67871711A80E0DF0471367F1E32C0D0EA
:10037000C0E0E590540FB54F05854F4E8010B54D48
:1003800008854F4E854D4F8005F54D854F4E759034
:090390000F758D64D0E0D0D0326D
:1004000020202020202054696D65202020202020DD
:03041000202000A9
:00000001FF
