:03000000020137C3
:03000B0002033FAE
:03001B0002034697
:1001000075703175713275723A75733575743975EC
:10011000753A757633757730757820757920757AEC
:1001200020757B20227F1E75891175880075A88A2D
:10013000D2BBD28CD28E227581C775900F316231BD
:10014000D231D231D2310031257480319F31D290F9
:10015000040031BF31D274C4319F31D2787031C9BB
:1001600080E775A038C280C281D28231D2C282318A
:10017000D275A00CC280C281D28231D2C28231D269
:1001800075A001C280C281D28231D2C28231D275C1
:10019000A006C280C281D28231D2C28231D222F57F
:1001A000A0C280C281D28231D2C28231D222F5A0D5
:1001B000D280C281D28231D2C28231D231D222E403
:1001C00093600531AEA380F722E6600531AE08806A
:1001D000F822C0D075D008780179FFD9FED8FAD0BE
:0201E000D0222B
:10030000E4B6390C763018B63506763074108001B4
:10031000062218B6310B08B63212763118763080C4
:100320001D08B639077630187631800106227877B5
:100330007100600A7874710060047871711222DFB4
:1003400004712E7F1E32C0D0C0E0E590540FB54F2F
:1003500005854F4E8010B54D08854F4E854D4F8019
:1003600005F54D854F4EE54F30E01DC28C654EF5CD
:10037000F030F1047877710030F204787471003055
:10038000F308787171128002D28C75900F758D64AC
:05039000D0E0D0D032E6
:1004000020202020202054696D65202020202020DD
:03041000202000A9
:00000001FF
