:0300000002014EAC
:10010000A950A851760008D9FB22C0D075D008E5C7
:100110004F75F00AA4F87AC879FFD9FEDAFAD8F652
:10012000D0D022C3940A40052441F68005E553242B
:1001300030F622AA50A951A852E754F0C4F5533121
:100140002308740F57F55331230809DAEC22755050
:1001500040755180310078807641087642087650AB
:1001600008765308765708763D78907652087630B0
:1001700008763108763208763D78A07652087633D4
:1001800008763408763508763D78B07652087636AB
:1001900008763708765308765008763D7800790A55
:1001A0007A147B1E7C287D327E3C7F468870897164
:1001B0008A728B738C748D758E768F77858178F5C6
:1001C0007985F07A85D07B7550037551707552959D
:1001D00031337550037551737552A5313375500322
:1001E0007551767552B63133755003755179755224
:0601F0008631330202001B
:1002000075A00075900051B151B1514A51B151B131
:1002100051B17480518751B1788051A751B174C0E8
:10022000518751B1789051A7754F0A310A748051A6
:100230008751B178A051A751B174C0518751B1789D
:10024000B051A7754F0A310A80FE75A038C280C22E
:1002500081D28251B1C28251B175A00CC280C281DB
:10026000D28251B1C28251B175A001C280C281D285
:100270008251B1C28251B175A006C280C281D282C0
:1002800051B1C28251B122F5A0C280C281D2825145
:10029000B1C28251B122F5A0D280C281D28251B1C5
:1002A000C28251B151B122E4E6600551960880F74F
:1002B00022C0D075D008780179FFD9FED8FAD0D005
:0102C000221B
:00000001FF
