:0300000002014EAC
:10010000A950A851760008D9FB22C0D075D008E5C7
:100110005075F00AA4F87AC879FFD9FEDAFAD8F651
:10012000D0D022C3940A40052441F68005E553242B
:1001300030F622AA50A951A852E754F0C4F5533121
:100140002308740F57F55331230809DAEC2275811F
:10015000C7755040755180310078807641087642ED
:1001600008765008765308765708763D7890765290
:1001700008763008763108763208763D78A07652D7
:1001800008763308763408763508763D78B07652AE
:1001900008763608763708765308765008763D7824
:1001A00000790A7A147B1E7C287D327E3C7F46884B
:1001B0007089718A728B738C748D758E768F77854A
:1001C0008178F57985F07A85D07B7550037551700B
:1001D00075529531337550037551737552A531338E
:1001E0007550037551767552B6313375500375519C
:0901F000797552863133020200D8
:1002000075A00075900051B151B1514A51B151B131
:1002100051B17480518751B1788051A751B174C0E8
:10022000518751B1789051A775500A310A748051A5
:100230008751B178A051A751B174C0518751B1789D
:10024000B051A775500A310A80FE75A038C280C22D
:1002500081D28251B1C28251B175A00CC280C281DB
:10026000D28251B1C28251B175A001C280C281D285
:100270008251B1C28251B175A006C280C281D282C0
:1002800051B1C28251B122F5A0C280C281D2825145
:10029000B1C28251B122F5A0D280C281D28251B1C5
:1002A000C28251B151B122E4E6600551960880F74F
:1002B00022C0D075D008780179FFD9FED8FAD0D005
:0102C000221B
:00000001FF
