:03000000020913DF
:0C091300787FE4F6D8FD75812502095AB2
:0D0B6700566F6C746167653A20006D560092
:100A3900C100C101C102C103020E0000021600007B
:100A4900021000000209000002120000010B00015F
:050A590018000114006B
:10080000E4F5B0F5A05390EF5380F0120B13120BE8
:100810002D120B567F80120A80120ADA7BFF7A0BA8
:1008200079677D09120A0D7F8D120A80120ADA7B20
:10083000FF7A0B79717D02120A0DC29475C50130E1
:1008400001FDC20175C5803001FDE5085403F50CBA
:10085000C201E4F5C53001FD850815C201D294E559
:100860000CFE7C00E42515F50FEC3EF50E3000CAB9
:100870000514E50F250AF50AE50E3509F509E51415
:10088000640A600280B4E4F514E509C313F516E5C3
:100890000A13F517C200E4F509F50AAE16AF177C86
:1008A000037DE81209B88F19E51975F00A8485F0FF
:1008B00019AE16AF177C007D641209B88F1AE51ABD
:1008C00075F00A8485F01AAE16AF177C007D0A1207
:1008D00009B88F1BE51B75F00A8485F01B85171C72
:1008E000E51C75F00A8485F01C7F89120A80120AC3
:1008F000DAE4F518E518C39404400302083A7419C1
:100900002518F8E6FF7E00120B748F0D120A9E0563
:030910001880E16B
:03004B00020AF7AF
:100AF700C0E0C0D075D000C007AFC4EF2480700538
:0C0B070085C508D201D007D0D0D0E03264
:03000B00020B44A1
:100B4400C0E0E50B7007D200750B1E8002150BD0B8
:020B5400E0328D
:050B740074302FFF2288
:100B1300D29443C32043C30143C31053C3F743C316
:0A0B23000443B104D2AF43C34022E3
:100B5600E4F58CF58A75890143A882D28C750B1E43
:010B6600226C
:100B2D00120ADA7F38120A807F0E120A807F0112B4
:070B3D000A807F80020A809C
:100A80008F21120ABC8521A0C280C281D2827F053B
:0E0A90007E00120ADEC2827F057E00020ADEB0
:100A9E008F25120ABC8525A0D280C281D2827F0505
:0E0AAE007E00120ADEC2827F057E00020ADE92
:100A0D008B218A2289238D24E524D39400401CABAD
:100A1D0021AA22A92312099FFF120A9E74012523E0
:0C0A2D00F523E43522F522152480DD229B
:100ABC0075A0FFC280D281C2827F057E00120ADE41
:0E0ACC00D28230A706C282D28280F7C2822276
:040ADA007F647E00B7
:100ADE00D3EF9400EE64809480400DE4FD0DBD05CF
:080AEE00FCEF1F70EB1E80E815
:010AF60022DD
:100A5F00D3EF9400EE648094804015E4FCFD0DBD4F
:100A6F0000010CBC01F8BD7EF5EF1F70E31E80E0A6
:010A7F002254
:10091F00020800E493A3F8E493A34003F68001F2E6
:10092F0008DFF48029E493A3F85407240CC8C333D9
:10093F00C4540F4420C8834004F456800146F6DFA8
:10094F00E4800B0102040810204080900A39E47EF5
:10095F00019360BCA3FF543F30E509541FFEE4939D
:10096F00A360010ECF54C025E060A840B8E493A364
:10097F00FAE493A3F8E493A3C8C582C8CAC583CA8F
:10098F00F0A3C8C582C8CAC583CADFE9DEE780BE47
:010A5E000097
:10099F00BB010689828A83E0225002E722BBFE0256
:0909AF00E32289828A83E4932289
:1009B800BC000BBE0029EF8DF084FFADF022E4CC23
:1009C800F875F008EF2FFFEE33FEEC33FCEE9DECEC
:1009D800984005FCEE9DFE0FD5F0E9E4CEFD22ED32
:1009E800F8F5F0EE8420D21CFEADF075F008EF2F7C
:1009F800FFED33FD4007985006D5F0F222C398FD6D
:050A08000FD5F0EA2209
:00000001FF
