:03000000020800F3
:0C080000787FE4F6D8FD758120020847DF
:05091E00010A3CC1804C
:07091700AF0A12088C80FEFC
:0F09080085088C85098A75890143A882C28C22D3
:03000B000208DA0E
:1008DA00C28C30000A850B8C850C8AC20080088580
:0C08EA00088C85098AD200D28CB2B03292
:02088C00A907BA
:10088E00E975F00AA4FFC374FF9FFF74FF95F0ABE8
:10089E0007FAC3E499FFE49400FE7C007D0A120877
:1008AE00F6C374179FFF74FC9EAD07FC0BBB0001D3
:1008BE000A0DBD00010CAF038F098A08AF058F0C1E
:0B08CE008C0B120908D2B0D200D28CB3
:0108D90022FC
:10080C00020917E493A3F8E493A34003F68001F2E2
:10081C0008DFF48029E493A3F85407240CC8C333ED
:10082C00C4540F4420C8834004F456800146F6DFBC
:10083C00E4800B010204081020408090091EE47E25
:10084C00019360BCA3FF543F30E509541FFEE493B1
:10085C00A360010ECF54C025E060A840B8E493A378
:10086C00FAE493A3F8E493A3C8C582C8CAC583CAA3
:10087C00F0A3C8C582C8CAC583CADFE9DEE780BE5B
:0109230000D3
:1008F600EF8DF0A4A8F0CF8CF0A428CE8DF0A42E16
:02090600FE22CF
:00000001FF
