:03000000020135C5
:03000B0002033FAE
:1001000075703175713275723A75733575743975EC
:10011000753A757633757730757820757920757AEC
:1001200020757B20227F1E75890175880075A88245
:10013000C28DD28C227581C775900F316031D0315C
:10014000D031D0310031257480319D31D090040000
:1001500031BD31D074C4319D31D0787031C780E762
:1001600075A038C280C281D28231D0C28231D075AE
:10017000A00CC280C281D28231D0C28231D075A09F
:1001800001C280C281D28231D0C28231D075A00634
:10019000C280C281D28231D0C28231D022F5A0C2C7
:1001A00080C281D28231D0C28231D022F5A0D280E9
:1001B000C281D28231D0C28231D031D022E4936068
:1001C0000531ACA380F722E6600531AC0880F82247
:1001D000C0D075D008780179FFD9FED8FAD0D022E6
:10030000E4B6390C763018B63506763074108001B4
:10031000062218B6310B08B63212763118763080C4
:100320001D08B639077630187631800106227877B5
:100330007100600A7874710060047871711222C0D3
:0F034000D075D000DF04712E7F1EC28DD0D03259
:1004000020202020202054696D65202020202020DD
:03041000202000A9
:00000001FF
