:030000000208797A
:0C087900787FE4F6D8FD75810702085472
:10083300D3EF9400EE648094804015E4FCFD0DBD7D
:1008430000010CBC01F8BD7EF5EF1F70E31E80E0D4
:010853002282
:03002300020800D0
:10080000C0E0C0D075D000C004C005C006C007C29B
:1008100099B2977FE87E031208337441A2D0929B6D
:10082000A2D09296F599D007D006D005D004D0D0AA
:03083000D0E032E3
:0F086A0075892075A8907598C0758DE8D28E227B
:1008540012086AE4F590D2977441A2D0929BA2D078
:060864009296F59980FE5A
:00000001FF
