:0300000002018575
:10010000C0D075D008E55075F00AA4F87AC879FF18
:10011000D9FEDAFAD8F6D0D02275500A7800884E87
:100120007590FF310053900FE590F8C44290310074
:10013000B80FEBE54EC4F590310075900075500294
:100140003100223119E54EC4F54F3119E54E454FC6
:10015000F54F22C3940A40052441F68005E5532457
:1001600030F622C0D075D008AA50A951A852E75441
:10017000F0C4F553315308740F57F5533153080940
:10018000DAECD0D0227581C775125375900F31DD2E
:10019000514D514D514D7480511A514D90030051A4
:1001A0003A514D850A503100314375500175514F18
:1001B0007552603163756220A84F864F7550017586
:1001C000514F755263316375650074C5511A514DB5
:1001D0007860514475500A310080BB80FE75A038AC
:1001E000C280C281D282514DC282514D75A00CC2D3
:1001F00080C281D282514DC282514D75A001C28010
:10020000C281D282514DC282514D75A006C280C2B8
:1002100081D282514DC282514D22F5A0C280C2814D
:0F022000D282514DC282514D22F5A0D280C281AF
:10022F00D282514DC282514D514D22E493600551FE
:10023F0029A380F722E6600551290880F822C0D053
:0E024F0075D008780179FFD9FED8FAD0D022F8
:10030000456E746572206D656D6F7279204C6F63F8
:060310006174696F6E00CC
:00000001FF
