:03000000020100FA
:100100007890764408766908766B08767308766886
:1001100008766108766E08767408762008765008AE
:1001200076610876740876690876640876610876E0
:0701300072087600020200D4
:100200007581C775A00075900051A251A25130515F
:10021000A251A251A27483516D51A2900300518D3D
:1002200051A274C0516D51A27890519851A280FE94
:1002300075A038C280C281D28251A2C28251A275F9
:10024000A00CC280C281D28251A2C28251A275A0EA
:1002500001C280C281D28251A2C28251A275A0067F
:10026000C280C281D28251A2C28251A222F5A0C212
:1002700080C281D28251A2C28251A222F5A0D28034
:10028000C281D28251A2C28251A251A222E493A37E
:100290006005517CA380F622E6086005517C088049
:0B02A000F7227A017BFFDBFEDAFA2276
:0B03000045453333372D4C414232009D
:00000001FF
