:03000000020800F3
:0C080000787FE4F6D8FD758120020847DF
:0C09B10048656C6C6F00576F726C64003E
:0209BD00C10077
:10088C00E4F5A01209377F801209857F647E00127F
:10089C0008FD7BFF7A0979B17D051208C97FCB125F
:1008AC0009857F647E001208FD7BFF7A0979B77D8C
:0D08BC00051208C97F887E1312091680C935
:100937007F647E001208FD7F381209857F0C12093B
:0B094700857F011209857F8002098571
:100985008F081209528508A0C2801208F5C2827F1D
:06099500057E000208FDD2
:10099B008F0C120952850CA0D2801208F5C2827FEF
:0609AB00057E000208FDBC
:1008C9008B088A09890A8D0BE50BD39400401CAB70
:1008D90008AA09A90A12096CFF12099B7401250AC1
:0C08E900F50AE43509F509150B80DD2245
:1009520075A0FFC280D281C2821208F9D28230A76A
:0A09620006C282D28280F7C2822210
:0808F500C281D2827F057E0062
:1008FD00D3EF9400EE64809480400DE4FD0DBD05B2
:08090D00FCEF1F70EB1E80E8F7
:0109150022BF
:10091600D3EF9400EE648094804015E4FCFD0DBD99
:1009260000010CBC01F8BD7EF5EF1F70E31E80E0F0
:01093600229E
:10080C0002088CE493A3F8E493A34003F68001F26E
:10081C0008DFF48029E493A3F85407240CC8C333ED
:10082C00C4540F4420C8834004F456800146F6DFBC
:10083C00E4800B01020408102040809009BDE47E86
:10084C00019360BCA3FF543F30E509541FFEE493B1
:10085C00A360010ECF54C025E060A840B8E493A378
:10086C00FAE493A3F8E493A3C8C582C8CAC583CAA3
:10087C00F0A3C8C582C8CAC583CADFE9DEE780BE5B
:0109BF000037
:10096C00BB010689828A83E0225002E722BBFE0289
:09097C00E32289828A83E49322BC
:00000001FF
